{
  "contractName": "HelloWorld",
  "abi": [
    {
      "constant": true,
      "inputs": [],
      "name": "getMyName",
      "outputs": [
        {
          "name": "",
          "type": "string"
        }
      ],
      "payable": false,
      "stateMutability": "view",
      "type": "function"
    },
    {
      "constant": false,
      "inputs": [
        {
          "name": "_newName",
          "type": "string"
        }
      ],
      "name": "changeMyName",
      "outputs": [],
      "payable": false,
      "stateMutability": "nonpayable",
      "type": "function"
    }
  ],
  "bytecode": "0x60806040526040518060400160405280600781526020017f4b7562616b6f7a000000000000000000000000000000000000000000000000008152506000908051906020019061004f929190610062565b5034801561005c57600080fd5b50610107565b828054600181600116156101000203166002900490600052602060002090601f016020900481019282601f106100a357805160ff19168380011785556100d1565b828001600101855582156100d1579182015b828111156100d05782518255916020019190600101906100b5565b5b5090506100de91906100e2565b5090565b61010491905b808211156101005760008160009055506001016100e8565b5090565b90565b61032c806101166000396000f3fe608060405234801561001057600080fd5b5060043610610053576000357c01000000000000000000000000000000000000000000000000000000009004806375a54bc214610058578063bf566599146100db575b600080fd5b610060610196565b6040518080602001828103825283818151815260200191508051906020019080838360005b838110156100a0578082015181840152602081019050610085565b50505050905090810190601f1680156100cd5780820380516001836020036101000a031916815260200191505b509250505060405180910390f35b610194600480360360208110156100f157600080fd5b810190808035906020019064010000000081111561010e57600080fd5b82018360208201111561012057600080fd5b8035906020019184600183028401116401000000008311171561014257600080fd5b91908080601f016020809104026020016040519081016040528093929190818152602001838380828437600081840152601f19601f820116905080830192505050505050509192919290505050610238565b005b606060008054600181600116156101000203166002900480601f01602080910402602001604051908101604052809291908181526020018280546001816001161561010002031660029004801561022e5780601f106102035761010080835404028352916020019161022e565b820191906000526020600020905b81548152906001019060200180831161021157829003601f168201915b5050505050905090565b806000908051906020019061024e929190610252565b5050565b828054600181600116156101000203166002900490600052602060002090601f016020900481019282601f1061029357805160ff19168380011785556102c1565b828001600101855582156102c1579182015b828111156102c05782518255916020019190600101906102a5565b5b5090506102ce91906102d2565b5090565b6102f491905b808211156102f05760008160009055506001016102d8565b5090565b9056fea265627a7a72305820a2f38226a8bf1105716e90cc341c9bd13615c5197d5366b0ea21cf1dee44898964736f6c634300050a0032",
  "source": "pragma solidity ^0.5.10;\r\n\r\ncontract HelloWorld {\r\n    string myName = \"Kubakoz\";\r\n\r\n    function getMyName() public view returns (string memory){\r\n        return myName;\r\n    }\r\n\r\n    function changeMyName(string memory _newName) public{\r\n        myName = _newName;\r\n    }\r\n\r\n}",
  "sourcePath": "D:\\projects\\eth-ludu-tutorial\\eth-experments\\contracts\\HelloWorld.sol",
  "compiler": {
    "name": "solc",
    "version": "0.5.10+commit.5a6ea5b1.Emscripten.clang"
  },
  "schemaVersion": "3.0.23",
  "updatedAt": "2021-01-22T18:25:26.697Z",
  "networkType": "ethereum",
  "devdoc": {
    "methods": {}
  },
  "userdoc": {
    "methods": {}
  }
}